:020000040000FA
:1000000001280314FF308500F93086008701FF3096
:1000100088000730890007309C0007309F0083125A
:100020008501860187018801890116288716051D2B
:100030001A282328851D1D282828851E20282D28BC
:10004000091C372832288713861006113A205328B6
:100050008713861406113A20532887138610061535
:100060003A2053288713861406153A2053283A203D
:10007000871717280A30A2006430A000FA30A100C8
:100080000000A10B4028A00B3E28A20B3C288712A1
:100090004928851C50280716051C4B280712502894
:1000A000051C4B280800881F53285F28081D53286B
:1000B000A70A881C5328A80A081C5328A90A8715D0
:1000C000851C5F2887110A30A3006430A400FA3031
:1000D000A5000000A50B6928A40B6728A30B6528C1
:0A00E0000716051C7028071208001F
:00000001FF
